{
  "contractName": "DVideo",
  "abi": [
    {
      "anonymous": false,
      "inputs": [
        {
          "indexed": false,
          "internalType": "uint256",
          "name": "id",
          "type": "uint256"
        },
        {
          "indexed": false,
          "internalType": "string",
          "name": "hash",
          "type": "string"
        },
        {
          "indexed": false,
          "internalType": "string",
          "name": "comment",
          "type": "string"
        },
        {
          "indexed": false,
          "internalType": "address",
          "name": "author",
          "type": "address"
        }
      ],
      "name": "CommentUploaded",
      "type": "event"
    },
    {
      "anonymous": false,
      "inputs": [
        {
          "indexed": false,
          "internalType": "uint256",
          "name": "id",
          "type": "uint256"
        },
        {
          "indexed": false,
          "internalType": "string",
          "name": "hash",
          "type": "string"
        },
        {
          "indexed": false,
          "internalType": "string",
          "name": "title",
          "type": "string"
        },
        {
          "indexed": false,
          "internalType": "address",
          "name": "author",
          "type": "address"
        }
      ],
      "name": "VideoUploaded",
      "type": "event"
    },
    {
      "constant": true,
      "inputs": [
        {
          "internalType": "string",
          "name": "",
          "type": "string"
        }
      ],
      "name": "comment",
      "outputs": [
        {
          "internalType": "uint256",
          "name": "id",
          "type": "uint256"
        },
        {
          "internalType": "string",
          "name": "hash",
          "type": "string"
        },
        {
          "internalType": "string",
          "name": "comment",
          "type": "string"
        },
        {
          "internalType": "address",
          "name": "author",
          "type": "address"
        }
      ],
      "payable": false,
      "stateMutability": "view",
      "type": "function"
    },
    {
      "constant": true,
      "inputs": [],
      "name": "name",
      "outputs": [
        {
          "internalType": "string",
          "name": "",
          "type": "string"
        }
      ],
      "payable": false,
      "stateMutability": "view",
      "type": "function"
    },
    {
      "constant": true,
      "inputs": [],
      "name": "videoCount",
      "outputs": [
        {
          "internalType": "uint256",
          "name": "",
          "type": "uint256"
        }
      ],
      "payable": false,
      "stateMutability": "view",
      "type": "function"
    },
    {
      "constant": true,
      "inputs": [
        {
          "internalType": "uint256",
          "name": "",
          "type": "uint256"
        }
      ],
      "name": "videos",
      "outputs": [
        {
          "internalType": "uint256",
          "name": "id",
          "type": "uint256"
        },
        {
          "internalType": "string",
          "name": "hash",
          "type": "string"
        },
        {
          "internalType": "string",
          "name": "title",
          "type": "string"
        },
        {
          "internalType": "address",
          "name": "author",
          "type": "address"
        }
      ],
      "payable": false,
      "stateMutability": "view",
      "type": "function"
    },
    {
      "constant": false,
      "inputs": [
        {
          "internalType": "string",
          "name": "_videoHash",
          "type": "string"
        }
      ],
      "name": "getComments",
      "outputs": [
        {
          "internalType": "string",
          "name": "",
          "type": "string"
        }
      ],
      "payable": false,
      "stateMutability": "nonpayable",
      "type": "function"
    },
    {
      "constant": false,
      "inputs": [
        {
          "internalType": "string",
          "name": "_videoHash",
          "type": "string"
        },
        {
          "internalType": "string",
          "name": "_comment",
          "type": "string"
        }
      ],
      "name": "addComment",
      "outputs": [],
      "payable": false,
      "stateMutability": "nonpayable",
      "type": "function"
    },
    {
      "constant": false,
      "inputs": [
        {
          "internalType": "string",
          "name": "_videoHash",
          "type": "string"
        },
        {
          "internalType": "string",
          "name": "_title",
          "type": "string"
        }
      ],
      "name": "uploadVideo",
      "outputs": [],
      "payable": false,
      "stateMutability": "nonpayable",
      "type": "function"
    }
  ],
  "bytecode": "0x6080604052600080556040518060400160405280600681526020017f44566964656f000000000000000000000000000000000000000000000000000081525060019080519060200190620000559291906200006a565b503480156200006357600080fd5b5062000119565b828054600181600116156101000203166002900490600052602060002090601f016020900481019282601f10620000ad57805160ff1916838001178555620000de565b82800160010185558215620000de579182015b82811115620000dd578251825591602001919060010190620000c0565b5b509050620000ed9190620000f1565b5090565b6200011691905b8082111562000112576000816000905550600101620000f8565b5090565b90565b61128480620001296000396000f3fe608060405234801561001057600080fd5b506004361061007d5760003560e01c80638d3a622d1161005b5780638d3a622d1461038b578063ae5ff90514610565578063c61b5f4c146106b7578063e6821bf5146106d55761007d565b806306fdde031461008257806370c63fcc146101055780638a5447c514610239575b600080fd5b61008a610822565b6040518080602001828103825283818151815260200191508051906020019080838360005b838110156100ca5780820151818401526020810190506100af565b50505050905090810190601f1680156100f75780820380516001836020036101000a031916815260200191505b509250505060405180910390f35b6101be6004803603602081101561011b57600080fd5b810190808035906020019064010000000081111561013857600080fd5b82018360208201111561014a57600080fd5b8035906020019184600183028401116401000000008311171561016c57600080fd5b91908080601f016020809104026020016040519081016040528093929190818152602001838380828437600081840152601f19601f8201169050808301925050505050505091929192905050506108c0565b6040518080602001828103825283818151815260200191508051906020019080838360005b838110156101fe5780820151818401526020810190506101e3565b50505050905090810190601f16801561022b5780820380516001836020036101000a031916815260200191505b509250505060405180910390f35b6103896004803603604081101561024f57600080fd5b810190808035906020019064010000000081111561026c57600080fd5b82018360208201111561027e57600080fd5b803590602001918460018302840111640100000000831117156102a057600080fd5b91908080601f016020809104026020016040519081016040528093929190818152602001838380828437600081840152601f19601f8201169050808301925050505050505091929192908035906020019064010000000081111561030357600080fd5b82018360208201111561031557600080fd5b8035906020019184600183028401116401000000008311171561033757600080fd5b91908080601f016020809104026020016040519081016040528093929190818152602001838380828437600081840152601f19601f8201169050808301925050505050505091929192905050506108c7565b005b610444600480360360208110156103a157600080fd5b81019080803590602001906401000000008111156103be57600080fd5b8201836020820111156103d057600080fd5b803590602001918460018302840111640100000000831117156103f257600080fd5b91908080601f016020809104026020016040519081016040528093929190818152602001838380828437600081840152601f19601f820116905080830192505050505050509192919290505050610b54565b6040518085815260200180602001806020018473ffffffffffffffffffffffffffffffffffffffff1673ffffffffffffffffffffffffffffffffffffffff168152602001838103835286818151815260200191508051906020019080838360005b838110156104c05780820151818401526020810190506104a5565b50505050905090810190601f1680156104ed5780820380516001836020036101000a031916815260200191505b50838103825285818151815260200191508051906020019080838360005b8381101561052657808201518184015260208101905061050b565b50505050905090810190601f1680156105535780820380516001836020036101000a031916815260200191505b50965050505050505060405180910390f35b6106b56004803603604081101561057b57600080fd5b810190808035906020019064010000000081111561059857600080fd5b8201836020820111156105aa57600080fd5b803590602001918460018302840111640100000000831117156105cc57600080fd5b91908080601f016020809104026020016040519081016040528093929190818152602001838380828437600081840152601f19601f8201169050808301925050505050505091929192908035906020019064010000000081111561062f57600080fd5b82018360208201111561064157600080fd5b8035906020019184600183028401116401000000008311171561066357600080fd5b91908080601f016020809104026020016040519081016040528093929190818152602001838380828437600081840152601f19601f820116905080830192505050505050509192919290505050610cea565b005b6106bf610fa4565b6040518082815260200191505060405180910390f35b610701600480360360208110156106eb57600080fd5b8101908080359060200190929190505050610faa565b6040518085815260200180602001806020018473ffffffffffffffffffffffffffffffffffffffff1673ffffffffffffffffffffffffffffffffffffffff168152602001838103835286818151815260200191508051906020019080838360005b8381101561077d578082015181840152602081019050610762565b50505050905090810190601f1680156107aa5780820380516001836020036101000a031916815260200191505b50838103825285818151815260200191508051906020019080838360005b838110156107e35780820151818401526020810190506107c8565b50505050905090810190601f1680156108105780820380516001836020036101000a031916815260200191505b50965050505050505060405180910390f35b60018054600181600116156101000203166002900480601f0160208091040260200160405190810160405280929190818152602001828054600181600116156101000203166002900480156108b85780601f1061088d576101008083540402835291602001916108b8565b820191906000526020600020905b81548152906001019060200180831161089b57829003601f168201915b505050505081565b6060919050565b60008251116108d557600080fd5b60008151116108e357600080fd5b600073ffffffffffffffffffffffffffffffffffffffff163373ffffffffffffffffffffffffffffffffffffffff16141561091d57600080fd5b6000808154809291906001019190505550604051806080016040528060005481526020018381526020018281526020013373ffffffffffffffffffffffffffffffffffffffff1681525060026000805481526020019081526020016000206000820151816000015560208201518160010190805190602001906109a192919061112a565b5060408201518160020190805190602001906109be92919061112a565b5060608201518160030160006101000a81548173ffffffffffffffffffffffffffffffffffffffff021916908373ffffffffffffffffffffffffffffffffffffffff1602179055509050507f2c44b862f4b4e08a26a765f9499900759a9ec95360a6f174d53163bd5d367f676000548383336040518085815260200180602001806020018473ffffffffffffffffffffffffffffffffffffffff1673ffffffffffffffffffffffffffffffffffffffff168152602001838103835286818151815260200191508051906020019080838360005b83811015610aac578082015181840152602081019050610a91565b50505050905090810190601f168015610ad95780820380516001836020036101000a031916815260200191505b50838103825285818151815260200191508051906020019080838360005b83811015610b12578082015181840152602081019050610af7565b50505050905090810190601f168015610b3f5780820380516001836020036101000a031916815260200191505b50965050505050505060405180910390a15050565b600381805160208101820180518482526020830160208501208183528095505050505050600091509050806000015490806001018054600181600116156101000203166002900480601f016020809104026020016040519081016040528092919081815260200182805460018160011615610100020316600290048015610c1c5780601f10610bf157610100808354040283529160200191610c1c565b820191906000526020600020905b815481529060010190602001808311610bff57829003601f168201915b505050505090806002018054600181600116156101000203166002900480601f016020809104026020016040519081016040528092919081815260200182805460018160011615610100020316600290048015610cba5780601f10610c8f57610100808354040283529160200191610cba565b820191906000526020600020905b815481529060010190602001808311610c9d57829003601f168201915b5050505050908060030160009054906101000a900473ffffffffffffffffffffffffffffffffffffffff16905084565b604051806080016040528060005481526020018381526020018281526020013373ffffffffffffffffffffffffffffffffffffffff168152506003836040518082805190602001908083835b60208310610d595780518252602082019150602081019050602083039250610d36565b6001836020036101000a0380198251168184511680821785525050505050509050019150509081526020016040518091039020600082015181600001556020820151816001019080519060200190610db292919061112a565b506040820151816002019080519060200190610dcf92919061112a565b5060608201518160030160006101000a81548173ffffffffffffffffffffffffffffffffffffffff021916908373ffffffffffffffffffffffffffffffffffffffff1602179055509050507ff4aa07c3fe8a063093c1ba2eed2bdd51d90191fda965b7437ed254fb7049a2d06000548383336040518085815260200180602001806020018473ffffffffffffffffffffffffffffffffffffffff1673ffffffffffffffffffffffffffffffffffffffff168152602001838103835286818151815260200191508051906020019080838360005b83811015610ebd578082015181840152602081019050610ea2565b50505050905090810190601f168015610eea5780820380516001836020036101000a031916815260200191505b50838103825285818151815260200191508051906020019080838360005b83811015610f23578082015181840152602081019050610f08565b50505050905090810190601f168015610f505780820380516001836020036101000a031916815260200191505b50965050505050505060405180910390a16004829080600181540180825580915050906001820390600052602060002001600090919290919091509080519060200190610f9e9291906111aa565b50505050565b60005481565b6002602052806000526040600020600091509050806000015490806001018054600181600116156101000203166002900480601f01602080910402602001604051908101604052809291908181526020018280546001816001161561010002031660029004801561105c5780601f106110315761010080835404028352916020019161105c565b820191906000526020600020905b81548152906001019060200180831161103f57829003601f168201915b505050505090806002018054600181600116156101000203166002900480601f0160208091040260200160405190810160405280929190818152602001828054600181600116156101000203166002900480156110fa5780601f106110cf576101008083540402835291602001916110fa565b820191906000526020600020905b8154815290600101906020018083116110dd57829003601f168201915b5050505050908060030160009054906101000a900473ffffffffffffffffffffffffffffffffffffffff16905084565b828054600181600116156101000203166002900490600052602060002090601f016020900481019282601f1061116b57805160ff1916838001178555611199565b82800160010185558215611199579182015b8281111561119857825182559160200191906001019061117d565b5b5090506111a6919061122a565b5090565b828054600181600116156101000203166002900490600052602060002090601f016020900481019282601f106111eb57805160ff1916838001178555611219565b82800160010185558215611219579182015b828111156112185782518255916020019190600101906111fd565b5b509050611226919061122a565b5090565b61124c91905b80821115611248576000816000905550600101611230565b5090565b9056fea265627a7a72315820da6959f9171aef7be4458171971ef96206003c9ea1ff9527a6021e9b04fd883764736f6c63430005100032",
  "source": "// SPDX-License-Identifier: MIT\r\npragma solidity ^0.5.0;\r\n// 'truffle console' in the command line allows us to use js in the command line to test variables\r\n\r\n// 1. model the video \r\n// 2. store the video \r\n// 3. upload video\r\n// 4. list videos\r\n\r\n\r\ncontract DVideo {\r\n  uint public videoCount = 0;\r\n  string public name = \"DVideo\";\r\n  //Create id=>struct mapping\r\n  // store videos in blockchain\r\n  mapping(uint => Video) public videos; // still store Video's in the mapping of videos[#s]\r\n  mapping(string => Comment) public comment; // gonna implement comments by creating a mapping of comments for specific videos\r\n    // we use string to map because we have a hash that is linking it to the comments. \r\n  string[] hashList;\r\n  string[] commentList;\r\n  uint hashNum;\r\n  \r\n  //1. model the video\r\n  //Create Struct\r\n  struct Video {\r\n    uint id; \r\n    string hash; \r\n    string title; \r\n    address author; \r\n  }\r\n  struct Comment {\r\n    uint id; // unique identifier for the comment\r\n    string hash; // will link the video that we hashed to the comments. \r\n    string comment; \r\n    address author; // author will be tracked\r\n  }\r\n\r\n  //Create Event\r\n  event VideoUploaded(\r\n    uint id,\r\n    string hash, \r\n    string title, \r\n    address author \r\n  );\r\n\r\n  event CommentUploaded (\r\n      uint id, \r\n      string hash, \r\n      string comment, \r\n      address author\r\n  );\r\n\r\n  function getComments(string memory _videoHash) public  returns(string memory)  {\r\n    \r\n  }\r\n\r\n  function addComment(string memory _videoHash, string memory _comment) public {\r\n      comment[_videoHash] = Comment(videoCount, _videoHash, _comment, msg.sender);\r\n      emit CommentUploaded(videoCount, _videoHash, _comment, msg.sender);\r\n    \r\n        hashList.push(_videoHash);\r\n\r\n  }\r\n\r\n\r\n//   constructor() public {\r\n//   }\r\n\r\n// upload video\r\n  function uploadVideo(string memory _videoHash, string memory _title) public {\r\n    // Make sure the video hash exists\r\n      require(bytes(_videoHash).length > 0); // if false the code below doesn't execute. the criteria must be met for the rest to occur\r\n    // converts to bytes first in order to show it exists in number\r\n    // Make sure video title exists\r\n    require(bytes(_title).length > 0);\r\n    // Make sure uploader address exists\r\n    require((msg.sender!=address(0))); // checks to make sure the msg.sender is an actual address instead of an 0x0 address which means there isn't an address\r\n\r\n    // Increment video id\r\n    videoCount ++;\r\n\r\n    // Add video to the contract\r\n    videos[videoCount] = Video(videoCount, _videoHash, _title, msg.sender);\r\n\r\n\r\n    // Trigger an event\r\n    emit VideoUploaded(videoCount, _videoHash, _title, msg.sender);\r\n    // events will officially change the state of the blockchain according to geeksforgeeks\r\n  }\r\n}\r\n",
  "sourcePath": "C:\\Users\\Vilan\\OneDrive\\Desktop\\Code2.0\\DecentralizedYoutube\\dvideo\\src\\contracts\\DVideo.sol",
  "compiler": {
    "name": "solc",
    "version": "0.5.16+commit.9c3226ce.Emscripten.clang"
  },
  "schemaVersion": "3.4.8",
  "updatedAt": "2022-08-09T23:06:47.025Z",
  "networkType": "ethereum",
  "devdoc": {
    "methods": {}
  },
  "userdoc": {
    "methods": {}
  }
}